{
  "contractName": "UniversityRegistry",
  "abi": [
    {
      "inputs": [
        {
          "internalType": "string",
          "name": "_ownUniversity",
          "type": "string"
        },
        {
          "internalType": "string",
          "name": "_ownDepartment",
          "type": "string"
        },
        {
          "internalType": "string",
          "name": "_ownServer",
          "type": "string"
        },
        {
          "internalType": "address",
          "name": "_otherAddress",
          "type": "address"
        },
        {
          "internalType": "string",
          "name": "_otherUniversity",
          "type": "string"
        },
        {
          "internalType": "string",
          "name": "_otherDepartment",
          "type": "string"
        },
        {
          "internalType": "string",
          "name": "_otherServer",
          "type": "string"
        }
      ],
      "stateMutability": "nonpayable",
      "type": "constructor"
    },
    {
      "anonymous": false,
      "inputs": [
        {
          "indexed": true,
          "internalType": "address",
          "name": "sender",
          "type": "address"
        },
        {
          "indexed": true,
          "internalType": "string",
          "name": "university",
          "type": "string"
        },
        {
          "indexed": true,
          "internalType": "string",
          "name": "department",
          "type": "string"
        },
        {
          "indexed": false,
          "internalType": "string",
          "name": "server",
          "type": "string"
        }
      ],
      "name": "ApplicantAdded",
      "type": "event"
    },
    {
      "anonymous": false,
      "inputs": [
        {
          "indexed": true,
          "internalType": "address",
          "name": "sender",
          "type": "address"
        },
        {
          "indexed": true,
          "internalType": "string",
          "name": "university",
          "type": "string"
        },
        {
          "indexed": true,
          "internalType": "string",
          "name": "department",
          "type": "string"
        },
        {
          "indexed": false,
          "internalType": "string",
          "name": "server",
          "type": "string"
        }
      ],
      "name": "MemberAdded",
      "type": "event"
    },
    {
      "inputs": [
        {
          "internalType": "address",
          "name": "",
          "type": "address"
        }
      ],
      "name": "applicantInfos",
      "outputs": [
        {
          "internalType": "string",
          "name": "university",
          "type": "string"
        },
        {
          "internalType": "string",
          "name": "department",
          "type": "string"
        },
        {
          "internalType": "string",
          "name": "server",
          "type": "string"
        },
        {
          "internalType": "uint256",
          "name": "votingEndTime",
          "type": "uint256"
        },
        {
          "internalType": "uint256",
          "name": "requiredQuorum",
          "type": "uint256"
        },
        {
          "internalType": "uint256",
          "name": "votesInFavor",
          "type": "uint256"
        },
        {
          "internalType": "uint256",
          "name": "votesAgainst",
          "type": "uint256"
        },
        {
          "internalType": "uint256",
          "name": "abstentions",
          "type": "uint256"
        }
      ],
      "stateMutability": "view",
      "type": "function",
      "constant": true
    },
    {
      "inputs": [
        {
          "internalType": "uint256",
          "name": "",
          "type": "uint256"
        }
      ],
      "name": "memberAddresses",
      "outputs": [
        {
          "internalType": "address",
          "name": "",
          "type": "address"
        }
      ],
      "stateMutability": "view",
      "type": "function",
      "constant": true
    },
    {
      "inputs": [
        {
          "internalType": "address",
          "name": "",
          "type": "address"
        }
      ],
      "name": "memberInfos",
      "outputs": [
        {
          "internalType": "string",
          "name": "university",
          "type": "string"
        },
        {
          "internalType": "string",
          "name": "department",
          "type": "string"
        },
        {
          "internalType": "string",
          "name": "server",
          "type": "string"
        }
      ],
      "stateMutability": "view",
      "type": "function",
      "constant": true
    },
    {
      "inputs": [
        {
          "internalType": "string",
          "name": "_university",
          "type": "string"
        },
        {
          "internalType": "string",
          "name": "_department",
          "type": "string"
        },
        {
          "internalType": "string",
          "name": "_server",
          "type": "string"
        }
      ],
      "name": "applyForMembership",
      "outputs": [],
      "stateMutability": "nonpayable",
      "type": "function"
    },
    {
      "inputs": [
        {
          "internalType": "address",
          "name": "_applicantAddress",
          "type": "address"
        },
        {
          "internalType": "int256",
          "name": "vote",
          "type": "int256"
        }
      ],
      "name": "castMembershipVote",
      "outputs": [],
      "stateMutability": "nonpayable",
      "type": "function"
    },
    {
      "inputs": [],
      "name": "resolveVoteResult",
      "outputs": [],
      "stateMutability": "nonpayable",
      "type": "function"
    },
    {
      "inputs": [
        {
          "internalType": "string",
          "name": "_server",
          "type": "string"
        }
      ],
      "name": "updateServer",
      "outputs": [],
      "stateMutability": "nonpayable",
      "type": "function"
    },
    {
      "inputs": [],
      "name": "getMemberCount",
      "outputs": [
        {
          "internalType": "uint256",
          "name": "",
          "type": "uint256"
        }
      ],
      "stateMutability": "view",
      "type": "function",
      "constant": true
    },
    {
      "inputs": [
        {
          "internalType": "address",
          "name": "account",
          "type": "address"
        }
      ],
      "name": "isMember",
      "outputs": [
        {
          "internalType": "bool",
          "name": "",
          "type": "bool"
        }
      ],
      "stateMutability": "view",
      "type": "function",
      "constant": true
    },
    {
      "inputs": [
        {
          "internalType": "address",
          "name": "account",
          "type": "address"
        }
      ],
      "name": "isApplicant",
      "outputs": [
        {
          "internalType": "bool",
          "name": "",
          "type": "bool"
        }
      ],
      "stateMutability": "view",
      "type": "function",
      "constant": true
    }
  ],
  "bytecode": "0x60806040523480156200001157600080fd5b5060405162002b1938038062002b1983398181016040528101906200003791906200063c565b6000604051806060016040528089815260200188815260200187815250905080600160003373ffffffffffffffffffffffffffffffffffffffff1673ffffffffffffffffffffffffffffffffffffffff1681526020019081526020016000206000820151816000019080519060200190620000b49291906200038a565b506020820151816001019080519060200190620000d39291906200038a565b506040820151816002019080519060200190620000f29291906200038a565b509050506002339080600181540180825580915050600190039060005260206000200160009091909190916101000a81548173ffffffffffffffffffffffffffffffffffffffff021916908373ffffffffffffffffffffffffffffffffffffffff16021790555086604051620001699190620007f6565b604051809103902088604051620001819190620007f6565b60405180910390203373ffffffffffffffffffffffffffffffffffffffff167f28c3348d21870d8384fc1de9686fe8562c28709d85ffb28ca182af8340be6fe289604051620001d1919062000861565b60405180910390a46000604051806060016040528086815260200185815260200184815250905080600160008873ffffffffffffffffffffffffffffffffffffffff1673ffffffffffffffffffffffffffffffffffffffff1681526020019081526020016000206000820151816000019080519060200190620002569291906200038a565b506020820151816001019080519060200190620002759291906200038a565b506040820151816002019080519060200190620002949291906200038a565b509050506002869080600181540180825580915050600190039060005260206000200160009091909190916101000a81548173ffffffffffffffffffffffffffffffffffffffff021916908373ffffffffffffffffffffffffffffffffffffffff160217905550836040516200030b9190620007f6565b604051809103902085604051620003239190620007f6565b60405180910390208773ffffffffffffffffffffffffffffffffffffffff167f28c3348d21870d8384fc1de9686fe8562c28709d85ffb28ca182af8340be6fe28660405162000373919062000861565b60405180910390a4505050505050505050620008ea565b8280546200039890620008b4565b90600052602060002090601f016020900481019282620003bc576000855562000408565b82601f10620003d757805160ff191683800117855562000408565b8280016001018555821562000408579182015b8281111562000407578251825591602001919060010190620003ea565b5b5090506200041791906200041b565b5090565b5b80821115620004365760008160009055506001016200041c565b5090565b6000604051905090565b600080fd5b600080fd5b600080fd5b600080fd5b6000601f19601f8301169050919050565b7f4e487b7100000000000000000000000000000000000000000000000000000000600052604160045260246000fd5b620004a38262000458565b810181811067ffffffffffffffff82111715620004c557620004c462000469565b5b80604052505050565b6000620004da6200043a565b9050620004e8828262000498565b919050565b600067ffffffffffffffff8211156200050b576200050a62000469565b5b620005168262000458565b9050602081019050919050565b60005b838110156200054357808201518184015260208101905062000526565b8381111562000553576000848401525b50505050565b6000620005706200056a84620004ed565b620004ce565b9050828152602081018484840111156200058f576200058e62000453565b5b6200059c84828562000523565b509392505050565b600082601f830112620005bc57620005bb6200044e565b5b8151620005ce84826020860162000559565b91505092915050565b600073ffffffffffffffffffffffffffffffffffffffff82169050919050565b60006200060482620005d7565b9050919050565b6200061681620005f7565b81146200062257600080fd5b50565b60008151905062000636816200060b565b92915050565b600080600080600080600060e0888a0312156200065e576200065d62000444565b5b600088015167ffffffffffffffff8111156200067f576200067e62000449565b5b6200068d8a828b01620005a4565b975050602088015167ffffffffffffffff811115620006b157620006b062000449565b5b620006bf8a828b01620005a4565b965050604088015167ffffffffffffffff811115620006e357620006e262000449565b5b620006f18a828b01620005a4565b9550506060620007048a828b0162000625565b945050608088015167ffffffffffffffff81111562000728576200072762000449565b5b620007368a828b01620005a4565b93505060a088015167ffffffffffffffff8111156200075a576200075962000449565b5b620007688a828b01620005a4565b92505060c088015167ffffffffffffffff8111156200078c576200078b62000449565b5b6200079a8a828b01620005a4565b91505092959891949750929550565b600081519050919050565b600081905092915050565b6000620007cc82620007a9565b620007d88185620007b4565b9350620007ea81856020860162000523565b80840191505092915050565b6000620008048284620007bf565b915081905092915050565b600082825260208201905092915050565b60006200082d82620007a9565b6200083981856200080f565b93506200084b81856020860162000523565b620008568162000458565b840191505092915050565b600060208201905081810360008301526200087d818462000820565b905092915050565b7f4e487b7100000000000000000000000000000000000000000000000000000000600052602260045260246000fd5b60006002820490506001821680620008cd57607f821691505b60208210811415620008e457620008e362000885565b5b50919050565b61221f80620008fa6000396000f3fe608060405234801561001057600080fd5b506004361061009e5760003560e01c8063a230c52411610066578063a230c5241461011f578063c85366391461014f578063cc4e629914610181578063f4310d49146101b1578063f85050e5146101e15761009e565b80631d8ef83a146100a357806345393aab146100bf5780638ea53a55146100db578063986a87c1146100f7578063997072f714610101575b600080fd5b6100bd60048036038101906100b89190611576565b610218565b005b6100d960048036038101906100d491906115bf565b6102f5565b005b6100f560048036038101906100f091906116fa565b610627565b005b6100ff610926565b005b610109610e98565b6040516101169190611753565b60405180910390f35b6101396004803603810190610134919061176e565b610ea5565b60405161014691906117b6565b60405180910390f35b6101696004803603810190610164919061176e565b610eff565b60405161017893929190611859565b60405180910390f35b61019b600480360381019061019691906118d1565b6110c1565b6040516101a8919061190d565b60405180910390f35b6101cb60048036038101906101c6919061176e565b611100565b6040516101d891906117b6565b60405180910390f35b6101fb60048036038101906101f6919061176e565b611159565b60405161020f989796959493929190611928565b60405180910390f35b3073ffffffffffffffffffffffffffffffffffffffff1663a230c524336040518263ffffffff1660e01b8152600401610251919061190d565b602060405180830381865afa15801561026e573d6000803e3d6000fd5b505050506040513d601f19601f8201168201806040525081019061029291906119e7565b61029b57600080fd5b80600160003373ffffffffffffffffffffffffffffffffffffffff1673ffffffffffffffffffffffffffffffffffffffff16815260200190815260200160002060020190805190602001906102f1929190611339565b5050565b60008351141561033a576040517f08c379a000000000000000000000000000000000000000000000000000000000815260040161033190611a60565b60405180910390fd5b60008251141561037f576040517f08c379a000000000000000000000000000000000000000000000000000000000815260040161037690611acc565b60405180910390fd5b6000815114156103c4576040517f08c379a00000000000000000000000000000000000000000000000000000000081526004016103bb90611b38565b60405180910390fd5b6000600160003373ffffffffffffffffffffffffffffffffffffffff1673ffffffffffffffffffffffffffffffffffffffff168152602001908152602001600020600101805461041390611b87565b905014610455576040517f08c379a000000000000000000000000000000000000000000000000000000000815260040161044c90611c05565b60405180910390fd5b60008060003373ffffffffffffffffffffffffffffffffffffffff1673ffffffffffffffffffffffffffffffffffffffff16815260200190815260200160002060010180546104a390611b87565b9050146104e5576040517f08c379a00000000000000000000000000000000000000000000000000000000081526004016104dc90611c71565b60405180910390fd5b6000619d80426104f59190611cc0565b905060008060003373ffffffffffffffffffffffffffffffffffffffff1673ffffffffffffffffffffffffffffffffffffffff168152602001908152602001600020905084816000019080519060200190610551929190611339565b508381600101908051906020019061056a929190611339565b5082816002019080519060200190610583929190611339565b50600280805490506105959190611d45565b8160040181905550818160030181905550836040516105b49190611db2565b6040518091039020856040516105ca9190611db2565b60405180910390203373ffffffffffffffffffffffffffffffffffffffff167f91917eec4f68a58b273e174942b8cfb51d34028972e920022ef80169a7f7d3c5866040516106189190611dc9565b60405180910390a45050505050565b3073ffffffffffffffffffffffffffffffffffffffff1663a230c524336040518263ffffffff1660e01b8152600401610660919061190d565b602060405180830381865afa15801561067d573d6000803e3d6000fd5b505050506040513d601f19601f820116820180604052508101906106a191906119e7565b6106aa57600080fd5b3073ffffffffffffffffffffffffffffffffffffffff1663f4310d49836040518263ffffffff1660e01b81526004016106e3919061190d565b602060405180830381865afa158015610700573d6000803e3d6000fd5b505050506040513d601f19601f8201168201806040525081019061072491906119e7565b610763576040517f08c379a000000000000000000000000000000000000000000000000000000000815260040161075a90611e5d565b60405180910390fd5b60008060008473ffffffffffffffffffffffffffffffffffffffff1673ffffffffffffffffffffffffffffffffffffffff1681526020019081526020016000209050428160030154116107eb576040517f08c379a00000000000000000000000000000000000000000000000000000000081526004016107e290611ec9565b60405180910390fd5b60008160050160003373ffffffffffffffffffffffffffffffffffffffff1673ffffffffffffffffffffffffffffffffffffffff168152602001908152602001600020541461086f576040517f08c379a000000000000000000000000000000000000000000000000000000000815260040161086690611f35565b60405180910390fd5b818160050160003373ffffffffffffffffffffffffffffffffffffffff1673ffffffffffffffffffffffffffffffffffffffff1681526020019081526020016000208190555060018214156108dd578060070160008154809291906108d390611f55565b9190505550610921565b6002821415610905578060060160008154809291906108fb90611f55565b9190505550610920565b80600801600081548092919061091a90611f55565b91905055505b5b505050565b3073ffffffffffffffffffffffffffffffffffffffff1663f4310d49336040518263ffffffff1660e01b815260040161095f919061190d565b602060405180830381865afa15801561097c573d6000803e3d6000fd5b505050506040513d601f19601f820116820180604052508101906109a091906119e7565b6109df576040517f08c379a00000000000000000000000000000000000000000000000000000000081526004016109d690611fea565b60405180910390fd5b60008060003373ffffffffffffffffffffffffffffffffffffffff1673ffffffffffffffffffffffffffffffffffffffff16815260200190815260200160002090504281600301541080610a5957508060040154816008015482600701548360060154610a4c9190611cc0565b610a569190611cc0565b10155b610a98576040517f08c379a0000000000000000000000000000000000000000000000000000000008152600401610a8f9061207c565b60405180910390fd5b80600801548160070154610aac9190611cc0565b81600601541115610dfc5760006040518060600160405280836000018054610ad390611b87565b80601f0160208091040260200160405190810160405280929190818152602001828054610aff90611b87565b8015610b4c5780601f10610b2157610100808354040283529160200191610b4c565b820191906000526020600020905b815481529060010190602001808311610b2f57829003601f168201915b50505050508152602001836001018054610b6590611b87565b80601f0160208091040260200160405190810160405280929190818152602001828054610b9190611b87565b8015610bde5780601f10610bb357610100808354040283529160200191610bde565b820191906000526020600020905b815481529060010190602001808311610bc157829003601f168201915b50505050508152602001836002018054610bf790611b87565b80601f0160208091040260200160405190810160405280929190818152602001828054610c2390611b87565b8015610c705780601f10610c4557610100808354040283529160200191610c70565b820191906000526020600020905b815481529060010190602001808311610c5357829003601f168201915b5050505050815250905080600160003373ffffffffffffffffffffffffffffffffffffffff1673ffffffffffffffffffffffffffffffffffffffff1681526020019081526020016000206000820151816000019080519060200190610cd6929190611339565b506020820151816001019080519060200190610cf3929190611339565b506040820151816002019080519060200190610d10929190611339565b509050506002339080600181540180825580915050600190039060005260206000200160009091909190916101000a81548173ffffffffffffffffffffffffffffffffffffffff021916908373ffffffffffffffffffffffffffffffffffffffff16021790555081600101604051610d889190612130565b604051809103902082600001604051610da19190612130565b60405180910390203373ffffffffffffffffffffffffffffffffffffffff167f28c3348d21870d8384fc1de9686fe8562c28709d85ffb28ca182af8340be6fe285600201604051610df291906121c7565b60405180910390a4505b6000803373ffffffffffffffffffffffffffffffffffffffff1673ffffffffffffffffffffffffffffffffffffffff16815260200190815260200160002060008082016000610e4b91906113bf565b600182016000610e5b91906113bf565b600282016000610e6b91906113bf565b60038201600090556004820160009055600682016000905560078201600090556008820160009055505050565b6000600280549050905090565b600080600160008473ffffffffffffffffffffffffffffffffffffffff1673ffffffffffffffffffffffffffffffffffffffff1681526020019081526020016000206001018054610ef590611b87565b9050119050919050565b6001602052806000526040600020600091509050806000018054610f2290611b87565b80601f0160208091040260200160405190810160405280929190818152602001828054610f4e90611b87565b8015610f9b5780601f10610f7057610100808354040283529160200191610f9b565b820191906000526020600020905b815481529060010190602001808311610f7e57829003601f168201915b505050505090806001018054610fb090611b87565b80601f0160208091040260200160405190810160405280929190818152602001828054610fdc90611b87565b80156110295780601f10610ffe57610100808354040283529160200191611029565b820191906000526020600020905b81548152906001019060200180831161100c57829003601f168201915b50505050509080600201805461103e90611b87565b80601f016020809104026020016040519081016040528092919081815260200182805461106a90611b87565b80156110b75780601f1061108c576101008083540402835291602001916110b7565b820191906000526020600020905b81548152906001019060200180831161109a57829003601f168201915b5050505050905083565b600281815481106110d157600080fd5b906000526020600020016000915054906101000a900473ffffffffffffffffffffffffffffffffffffffff1681565b6000806000808473ffffffffffffffffffffffffffffffffffffffff1673ffffffffffffffffffffffffffffffffffffffff168152602001908152602001600020600101805461114f90611b87565b9050119050919050565b600060205280600052604060002060009150905080600001805461117c90611b87565b80601f01602080910402602001604051908101604052809291908181526020018280546111a890611b87565b80156111f55780601f106111ca576101008083540402835291602001916111f5565b820191906000526020600020905b8154815290600101906020018083116111d857829003601f168201915b50505050509080600101805461120a90611b87565b80601f016020809104026020016040519081016040528092919081815260200182805461123690611b87565b80156112835780601f1061125857610100808354040283529160200191611283565b820191906000526020600020905b81548152906001019060200180831161126657829003601f168201915b50505050509080600201805461129890611b87565b80601f01602080910402602001604051908101604052809291908181526020018280546112c490611b87565b80156113115780601f106112e657610100808354040283529160200191611311565b820191906000526020600020905b8154815290600101906020018083116112f457829003601f168201915b5050505050908060030154908060040154908060060154908060070154908060080154905088565b82805461134590611b87565b90600052602060002090601f01602090048101928261136757600085556113ae565b82601f1061138057805160ff19168380011785556113ae565b828001600101855582156113ae579182015b828111156113ad578251825591602001919060010190611392565b5b5090506113bb91906113ff565b5090565b5080546113cb90611b87565b6000825580601f106113dd57506113fc565b601f0160209004906000526020600020908101906113fb91906113ff565b5b50565b5b80821115611418576000816000905550600101611400565b5090565b6000604051905090565b600080fd5b600080fd5b600080fd5b600080fd5b6000601f19601f8301169050919050565b7f4e487b7100000000000000000000000000000000000000000000000000000000600052604160045260246000fd5b6114838261143a565b810181811067ffffffffffffffff821117156114a2576114a161144b565b5b80604052505050565b60006114b561141c565b90506114c1828261147a565b919050565b600067ffffffffffffffff8211156114e1576114e061144b565b5b6114ea8261143a565b9050602081019050919050565b82818337600083830152505050565b6000611519611514846114c6565b6114ab565b90508281526020810184848401111561153557611534611435565b5b6115408482856114f7565b509392505050565b600082601f83011261155d5761155c611430565b5b813561156d848260208601611506565b91505092915050565b60006020828403121561158c5761158b611426565b5b600082013567ffffffffffffffff8111156115aa576115a961142b565b5b6115b684828501611548565b91505092915050565b6000806000606084860312156115d8576115d7611426565b5b600084013567ffffffffffffffff8111156115f6576115f561142b565b5b61160286828701611548565b935050602084013567ffffffffffffffff8111156116235761162261142b565b5b61162f86828701611548565b925050604084013567ffffffffffffffff8111156116505761164f61142b565b5b61165c86828701611548565b9150509250925092565b600073ffffffffffffffffffffffffffffffffffffffff82169050919050565b600061169182611666565b9050919050565b6116a181611686565b81146116ac57600080fd5b50565b6000813590506116be81611698565b92915050565b6000819050919050565b6116d7816116c4565b81146116e257600080fd5b50565b6000813590506116f4816116ce565b92915050565b6000806040838503121561171157611710611426565b5b600061171f858286016116af565b9250506020611730858286016116e5565b9150509250929050565b6000819050919050565b61174d8161173a565b82525050565b60006020820190506117686000830184611744565b92915050565b60006020828403121561178457611783611426565b5b6000611792848285016116af565b91505092915050565b60008115159050919050565b6117b08161179b565b82525050565b60006020820190506117cb60008301846117a7565b92915050565b600081519050919050565b600082825260208201905092915050565b60005b8381101561180b5780820151818401526020810190506117f0565b8381111561181a576000848401525b50505050565b600061182b826117d1565b61183581856117dc565b93506118458185602086016117ed565b61184e8161143a565b840191505092915050565b600060608201905081810360008301526118738186611820565b905081810360208301526118878185611820565b9050818103604083015261189b8184611820565b9050949350505050565b6118ae8161173a565b81146118b957600080fd5b50565b6000813590506118cb816118a5565b92915050565b6000602082840312156118e7576118e6611426565b5b60006118f5848285016118bc565b91505092915050565b61190781611686565b82525050565b600060208201905061192260008301846118fe565b92915050565b6000610100820190508181036000830152611943818b611820565b90508181036020830152611957818a611820565b9050818103604083015261196b8189611820565b905061197a6060830188611744565b6119876080830187611744565b61199460a0830186611744565b6119a160c0830185611744565b6119ae60e0830184611744565b9998505050505050505050565b6119c48161179b565b81146119cf57600080fd5b50565b6000815190506119e1816119bb565b92915050565b6000602082840312156119fd576119fc611426565b5b6000611a0b848285016119d2565b91505092915050565b7f4d7573742070726f7669646520756e6976657273697479206e616d652e000000600082015250565b6000611a4a601d836117dc565b9150611a5582611a14565b602082019050919050565b60006020820190508181036000830152611a7981611a3d565b9050919050565b7f4d7573742070726f76696465206465706172746d656e74206e616d652e000000600082015250565b6000611ab6601d836117dc565b9150611ac182611a80565b602082019050919050565b60006020820190508181036000830152611ae581611aa9565b9050919050565b7f4d7573742070726f766964652073657276657220616464726573732e00000000600082015250565b6000611b22601c836117dc565b9150611b2d82611aec565b602082019050919050565b60006020820190508181036000830152611b5181611b15565b9050919050565b7f4e487b7100000000000000000000000000000000000000000000000000000000600052602260045260246000fd5b60006002820490506001821680611b9f57607f821691505b60208210811415611bb357611bb2611b58565b5b50919050565b7f4d656d62657220616c7265616479206578697374732e00000000000000000000600082015250565b6000611bef6016836117dc565b9150611bfa82611bb9565b602082019050919050565b60006020820190508181036000830152611c1e81611be2565b9050919050565b7f4170706c6963616e7420616c7265616479206578697374732e00000000000000600082015250565b6000611c5b6019836117dc565b9150611c6682611c25565b602082019050919050565b60006020820190508181036000830152611c8a81611c4e565b9050919050565b7f4e487b7100000000000000000000000000000000000000000000000000000000600052601160045260246000fd5b6000611ccb8261173a565b9150611cd68361173a565b9250827fffffffffffffffffffffffffffffffffffffffffffffffffffffffffffffffff03821115611d0b57611d0a611c91565b5b828201905092915050565b7f4e487b7100000000000000000000000000000000000000000000000000000000600052601260045260246000fd5b6000611d508261173a565b9150611d5b8361173a565b925082611d6b57611d6a611d16565b5b828204905092915050565b600081905092915050565b6000611d8c826117d1565b611d968185611d76565b9350611da68185602086016117ed565b80840191505092915050565b6000611dbe8284611d81565b915081905092915050565b60006020820190508181036000830152611de38184611820565b905092915050565b7f4e6f206170706c6963616e7420776974682070726f766964656420616464726560008201527f73732e0000000000000000000000000000000000000000000000000000000000602082015250565b6000611e476023836117dc565b9150611e5282611deb565b604082019050919050565b60006020820190508181036000830152611e7681611e3a565b9050919050565b7f566f74696e6720706572696f642068617320657870697265642e000000000000600082015250565b6000611eb3601a836117dc565b9150611ebe82611e7d565b602082019050919050565b60006020820190508181036000830152611ee281611ea6565b9050919050565b7f416c726561647920766f7465642e000000000000000000000000000000000000600082015250565b6000611f1f600e836117dc565b9150611f2a82611ee9565b602082019050919050565b60006020820190508181036000830152611f4e81611f12565b9050919050565b6000611f608261173a565b91507fffffffffffffffffffffffffffffffffffffffffffffffffffffffffffffffff821415611f9357611f92611c91565b5b600182019050919050565b7f4e6f7420616e206170706c6963616e742e000000000000000000000000000000600082015250565b6000611fd46011836117dc565b9150611fdf82611f9e565b602082019050919050565b6000602082019050818103600083015261200381611fc7565b9050919050565b7f51756f72756d206e6f74207265616368656420616e642074696d65207374696c60008201527f6c2072756e6e696e672e00000000000000000000000000000000000000000000602082015250565b6000612066602a836117dc565b91506120718261200a565b604082019050919050565b6000602082019050818103600083015261209581612059565b9050919050565b60008190508160005260206000209050919050565b600081546120be81611b87565b6120c88186611d76565b945060018216600081146120e357600181146120f457612127565b60ff19831686528186019350612127565b6120fd8561209c565b60005b8381101561211f57815481890152600182019150602081019050612100565b838801955050505b50505092915050565b600061213c82846120b1565b915081905092915050565b6000815461215481611b87565b61215e81866117dc565b94506001821660008114612179576001811461218b576121be565b60ff19831686526020860193506121be565b6121948561209c565b60005b838110156121b657815481890152600182019150602081019050612197565b808801955050505b50505092915050565b600060208201905081810360008301526121e18184612147565b90509291505056fea26469706673582212201aeb21eb754fd68c74a889310d4201b3b438b51f24a05fc0ce2a8f15dc08da3e64736f6c634300080b0033",
  "immutableReferences": {},
  "source": "// SPDX-License-Identifier: MIT\npragma solidity ^0.8.11;\n\nimport \"./interfaces/IMembership.sol\";\n\ncontract UniversityRegistry is IMembership {\n    event ApplicantAdded(\n        address indexed sender,\n        string indexed university,\n        string indexed department,\n        string server\n    );\n\n    event MemberAdded(\n        address indexed sender,\n        string indexed university,\n        string indexed department,\n        string server\n    );\n\n    struct Applicant {\n        string university; // name of institution\n        string department; // name of department\n        string server; // address of transfer server\n        uint256 votingEndTime; // last block where it is possible to vote\n        uint256 requiredQuorum;\n        mapping(address => int256) votes; // 1 against, 2 in favor, >=3 abstain\n        uint256 votesInFavor;\n        uint256 votesAgainst;\n        uint256 abstentions;\n    }\n\n    struct Member {\n        string university; // name of institution\n        string department; // name of department\n        string server; // address of transfer server\n    }\n\n    mapping(address => Applicant) public applicantInfos;\n\n    mapping(address => Member) public memberInfos;\n    address[] public memberAddresses;\n\n    modifier onlyMember() {\n        require(this.isMember(msg.sender));\n        _;\n    }\n\n    constructor(\n        string memory _ownUniversity,\n        string memory _ownDepartment,\n        string memory _ownServer,\n        address _otherAddress,\n        string memory _otherUniversity,\n        string memory _otherDepartment,\n        string memory _otherServer\n    ) {\n        Member memory p1 = Member(_ownUniversity, _ownDepartment, _ownServer);\n        memberInfos[msg.sender] = p1;\n        memberAddresses.push(msg.sender);\n        emit MemberAdded(\n            msg.sender,\n            _ownUniversity,\n            _ownDepartment,\n            _ownServer\n        );\n\n        Member memory p2 = Member(\n            _otherUniversity,\n            _otherDepartment,\n            _otherServer\n        );\n        memberInfos[_otherAddress] = p2;\n        memberAddresses.push(_otherAddress);\n        emit MemberAdded(\n            _otherAddress,\n            _otherUniversity,\n            _otherDepartment,\n            _otherServer\n        );\n    }\n\n    function applyForMembership(\n        string memory _university,\n        string memory _department,\n        string memory _server\n    ) public {\n        require(\n            bytes(_university).length != 0,\n            \"Must provide university name.\"\n        );\n        require(\n            bytes(_department).length != 0,\n            \"Must provide department name.\"\n        );\n        require(bytes(_server).length != 0, \"Must provide server address.\");\n        require(\n            bytes(memberInfos[msg.sender].department).length == 0,\n            \"Member already exists.\"\n        );\n        require(\n            bytes(applicantInfos[msg.sender].department).length == 0,\n            \"Applicant already exists.\"\n        );\n        uint256 votingEnd = block.timestamp + 40320; // roughly one week\n        Applicant storage a = applicantInfos[msg.sender];\n        a.university = _university;\n        a.department = _department;\n        a.server = _server;\n        a.requiredQuorum = memberAddresses.length / 2;\n        a.votingEndTime = votingEnd;\n        emit ApplicantAdded(msg.sender, _university, _department, _server);\n    }\n\n    function castMembershipVote(address _applicantAddress, int256 vote)\n        public\n        onlyMember\n    {\n        require(\n            this.isApplicant(_applicantAddress),\n            \"No applicant with provided address.\"\n        );\n        Applicant storage a = applicantInfos[_applicantAddress];\n        require(\n            a.votingEndTime > block.timestamp,\n            \"Voting period has expired.\"\n        );\n        require(a.votes[msg.sender] == 0, \"Already voted.\");\n        a.votes[msg.sender] = vote;\n        if (vote == 1) {\n            a.votesAgainst++;\n        } else if (vote == 2) {\n            a.votesInFavor++;\n        } else {\n            a.abstentions++;\n        }\n    }\n\n    // needs to be called to become member or remove old vote before starting a new application\n    function resolveVoteResult() public {\n        require(this.isApplicant(msg.sender), \"Not an applicant.\");\n        Applicant storage a = applicantInfos[msg.sender];\n        require(\n            a.votingEndTime < block.timestamp ||\n                a.votesInFavor + a.votesAgainst + a.abstentions >=\n                a.requiredQuorum,\n            \"Quorum not reached and time still running.\"\n        );\n        if (a.votesInFavor > a.votesAgainst + a.abstentions) {\n            Member memory m = Member(a.university, a.department, a.server);\n            memberInfos[msg.sender] = m;\n            memberAddresses.push(msg.sender);\n            emit MemberAdded(msg.sender, a.university, a.department, a.server);\n        }\n        delete applicantInfos[msg.sender];\n    }\n\n    function updateServer(string memory _server) public onlyMember {\n        memberInfos[msg.sender].server = _server;\n    }\n\n    function getMemberCount() public view returns (uint256) {\n        return memberAddresses.length;\n    }\n\n    function isMember(address account) external view returns (bool) {\n        return bytes(memberInfos[account].department).length > 0;\n    }\n\n    function isApplicant(address account) external view returns (bool) {\n        return bytes(applicantInfos[account].department).length > 0;\n    }\n}\n",
  "sourcePath": "/home/felix/projects/credit-mobility/contracts/contracts/UniversityRegistry.sol",
  "compiler": {
    "name": "solc",
    "version": "0.8.11+commit.d7f03943.Emscripten.clang"
  },
  "schemaVersion": "3.4.4",
  "updatedAt": "2022-07-01T08:03:24.872Z",
  "networkType": "ethereum",
  "devdoc": {
    "kind": "dev",
    "methods": {},
    "version": 1
  },
  "userdoc": {
    "kind": "user",
    "methods": {},
    "version": 1
  }
}