{
  "contractName": "TransferLog",
  "abi": [
    {
      "inputs": [
        {
          "internalType": "address",
          "name": "_registryAddress",
          "type": "address"
        }
      ],
      "stateMutability": "nonpayable",
      "type": "constructor"
    },
    {
      "inputs": [
        {
          "internalType": "address",
          "name": "",
          "type": "address"
        },
        {
          "internalType": "uint256",
          "name": "",
          "type": "uint256"
        }
      ],
      "name": "transfers",
      "outputs": [
        {
          "internalType": "address",
          "name": "from",
          "type": "address"
        },
        {
          "internalType": "address",
          "name": "to",
          "type": "address"
        },
        {
          "internalType": "bytes32",
          "name": "hash1",
          "type": "bytes32"
        },
        {
          "internalType": "bytes32",
          "name": "hash2",
          "type": "bytes32"
        },
        {
          "internalType": "uint256",
          "name": "time",
          "type": "uint256"
        }
      ],
      "stateMutability": "view",
      "type": "function",
      "constant": true
    },
    {
      "inputs": [
        {
          "internalType": "address",
          "name": "_to",
          "type": "address"
        },
        {
          "internalType": "bytes32",
          "name": "_hash1",
          "type": "bytes32"
        },
        {
          "internalType": "bytes32",
          "name": "_hash2",
          "type": "bytes32"
        }
      ],
      "name": "announce",
      "outputs": [],
      "stateMutability": "nonpayable",
      "type": "function"
    },
    {
      "inputs": [
        {
          "internalType": "address",
          "name": "_from",
          "type": "address"
        },
        {
          "internalType": "address",
          "name": "_to",
          "type": "address"
        },
        {
          "internalType": "bytes32",
          "name": "_hash1",
          "type": "bytes32"
        },
        {
          "internalType": "bytes32",
          "name": "_hash2",
          "type": "bytes32"
        }
      ],
      "name": "validate",
      "outputs": [
        {
          "components": [
            {
              "internalType": "address",
              "name": "from",
              "type": "address"
            },
            {
              "internalType": "address",
              "name": "to",
              "type": "address"
            },
            {
              "internalType": "bytes32",
              "name": "hash1",
              "type": "bytes32"
            },
            {
              "internalType": "bytes32",
              "name": "hash2",
              "type": "bytes32"
            },
            {
              "internalType": "uint256",
              "name": "time",
              "type": "uint256"
            }
          ],
          "internalType": "struct TransferLog.Transfer",
          "name": "",
          "type": "tuple"
        }
      ],
      "stateMutability": "view",
      "type": "function",
      "constant": true
    }
  ],
  "bytecode": "0x608060405234801561001057600080fd5b5060405162000fa638038062000fa6833981810160405281019061003491906100dd565b806000806101000a81548173ffffffffffffffffffffffffffffffffffffffff021916908373ffffffffffffffffffffffffffffffffffffffff1602179055505061010a565b600080fd5b600073ffffffffffffffffffffffffffffffffffffffff82169050919050565b60006100aa8261007f565b9050919050565b6100ba8161009f565b81146100c557600080fd5b50565b6000815190506100d7816100b1565b92915050565b6000602082840312156100f3576100f261007a565b5b6000610101848285016100c8565b91505092915050565b610e8c806200011a6000396000f3fe608060405234801561001057600080fd5b50600436106100415760003560e01c806347b8b7ed1461004657806357b1dbe314610076578063d08de506146100aa575b600080fd5b610060600480360381019061005b919061097a565b6100c6565b60405161006d9190610a80565b60405180910390f35b610090600480360381019061008b9190610ac7565b6104c7565b6040516100a1959493929190610b34565b60405180910390f35b6100c460048036038101906100bf9190610b87565b61055a565b005b6100ce610880565b60008054906101000a900473ffffffffffffffffffffffffffffffffffffffff1673ffffffffffffffffffffffffffffffffffffffff1663a230c524866040518263ffffffff1660e01b81526004016101279190610bda565b602060405180830381865afa158015610144573d6000803e3d6000fd5b505050506040513d601f19601f820116820180604052508101906101689190610c2d565b6101a7576040517f08c379a000000000000000000000000000000000000000000000000000000000815260040161019e90610cb7565b60405180910390fd5b60008054906101000a900473ffffffffffffffffffffffffffffffffffffffff1673ffffffffffffffffffffffffffffffffffffffff1663a230c524856040518263ffffffff1660e01b81526004016102009190610bda565b602060405180830381865afa15801561021d573d6000803e3d6000fd5b505050506040513d601f19601f820116820180604052508101906102419190610c2d565b610280576040517f08c379a000000000000000000000000000000000000000000000000000000000815260040161027790610d23565b60405180910390fd5b6000600160008673ffffffffffffffffffffffffffffffffffffffff1673ffffffffffffffffffffffffffffffffffffffff168152602001908152602001600020805480602002602001604051908101604052809291908181526020016000905b828210156103dd57838290600052602060002090600502016040518060a00160405290816000820160009054906101000a900473ffffffffffffffffffffffffffffffffffffffff1673ffffffffffffffffffffffffffffffffffffffff1673ffffffffffffffffffffffffffffffffffffffff1681526020016001820160009054906101000a900473ffffffffffffffffffffffffffffffffffffffff1673ffffffffffffffffffffffffffffffffffffffff1673ffffffffffffffffffffffffffffffffffffffff1681526020016002820154815260200160038201548152602001600482015481525050815260200190600101906102e1565b50505050905060005b815181101561048357600082828151811061040457610403610d43565b5b602002602001015190508773ffffffffffffffffffffffffffffffffffffffff16816000015173ffffffffffffffffffffffffffffffffffffffff161480156104505750858160400151145b801561045f5750848160600151145b1561046f578093505050506104bf565b50808061047b90610da1565b9150506103e6565b506040517f08c379a00000000000000000000000000000000000000000000000000000000081526004016104b690610e36565b60405180910390fd5b949350505050565b600160205281600052604060002081815481106104e357600080fd5b9060005260206000209060050201600091509150508060000160009054906101000a900473ffffffffffffffffffffffffffffffffffffffff16908060010160009054906101000a900473ffffffffffffffffffffffffffffffffffffffff16908060020154908060030154908060040154905085565b60008054906101000a900473ffffffffffffffffffffffffffffffffffffffff1673ffffffffffffffffffffffffffffffffffffffff1663a230c524336040518263ffffffff1660e01b81526004016105b39190610bda565b602060405180830381865afa1580156105d0573d6000803e3d6000fd5b505050506040513d601f19601f820116820180604052508101906105f49190610c2d565b610633576040517f08c379a000000000000000000000000000000000000000000000000000000000815260040161062a90610cb7565b60405180910390fd5b60008054906101000a900473ffffffffffffffffffffffffffffffffffffffff1673ffffffffffffffffffffffffffffffffffffffff1663a230c524846040518263ffffffff1660e01b815260040161068c9190610bda565b602060405180830381865afa1580156106a9573d6000803e3d6000fd5b505050506040513d601f19601f820116820180604052508101906106cd9190610c2d565b61070c576040517f08c379a000000000000000000000000000000000000000000000000000000000815260040161070390610d23565b60405180910390fd5b60006040518060a001604052803373ffffffffffffffffffffffffffffffffffffffff1681526020018573ffffffffffffffffffffffffffffffffffffffff168152602001848152602001838152602001428152509050600160008573ffffffffffffffffffffffffffffffffffffffff1673ffffffffffffffffffffffffffffffffffffffff16815260200190815260200160002081908060018154018082558091505060019003906000526020600020906005020160009091909190915060008201518160000160006101000a81548173ffffffffffffffffffffffffffffffffffffffff021916908373ffffffffffffffffffffffffffffffffffffffff16021790555060208201518160010160006101000a81548173ffffffffffffffffffffffffffffffffffffffff021916908373ffffffffffffffffffffffffffffffffffffffff160217905550604082015181600201556060820151816003015560808201518160040155505050505050565b6040518060a00160405280600073ffffffffffffffffffffffffffffffffffffffff168152602001600073ffffffffffffffffffffffffffffffffffffffff1681526020016000801916815260200160008019168152602001600081525090565b600080fd5b600073ffffffffffffffffffffffffffffffffffffffff82169050919050565b6000610911826108e6565b9050919050565b61092181610906565b811461092c57600080fd5b50565b60008135905061093e81610918565b92915050565b6000819050919050565b61095781610944565b811461096257600080fd5b50565b6000813590506109748161094e565b92915050565b60008060008060808587031215610994576109936108e1565b5b60006109a28782880161092f565b94505060206109b38782880161092f565b93505060406109c487828801610965565b92505060606109d587828801610965565b91505092959194509250565b6109ea81610906565b82525050565b6109f981610944565b82525050565b6000819050919050565b610a12816109ff565b82525050565b60a082016000820151610a2e60008501826109e1565b506020820151610a4160208501826109e1565b506040820151610a5460408501826109f0565b506060820151610a6760608501826109f0565b506080820151610a7a6080850182610a09565b50505050565b600060a082019050610a956000830184610a18565b92915050565b610aa4816109ff565b8114610aaf57600080fd5b50565b600081359050610ac181610a9b565b92915050565b60008060408385031215610ade57610add6108e1565b5b6000610aec8582860161092f565b9250506020610afd85828601610ab2565b9150509250929050565b610b1081610906565b82525050565b610b1f81610944565b82525050565b610b2e816109ff565b82525050565b600060a082019050610b496000830188610b07565b610b566020830187610b07565b610b636040830186610b16565b610b706060830185610b16565b610b7d6080830184610b25565b9695505050505050565b600080600060608486031215610ba057610b9f6108e1565b5b6000610bae8682870161092f565b9350506020610bbf86828701610965565b9250506040610bd086828701610965565b9150509250925092565b6000602082019050610bef6000830184610b07565b92915050565b60008115159050919050565b610c0a81610bf5565b8114610c1557600080fd5b50565b600081519050610c2781610c01565b92915050565b600060208284031215610c4357610c426108e1565b5b6000610c5184828501610c18565b91505092915050565b600082825260208201905092915050565b7f53656e646572206d75737420626520726567697374657265642e000000000000600082015250565b6000610ca1601a83610c5a565b9150610cac82610c6b565b602082019050919050565b60006020820190508181036000830152610cd081610c94565b9050919050565b7f5265636569766572206d75737420626520726567697374657265642e00000000600082015250565b6000610d0d601c83610c5a565b9150610d1882610cd7565b602082019050919050565b60006020820190508181036000830152610d3c81610d00565b9050919050565b7f4e487b7100000000000000000000000000000000000000000000000000000000600052603260045260246000fd5b7f4e487b7100000000000000000000000000000000000000000000000000000000600052601160045260246000fd5b6000610dac826109ff565b91507fffffffffffffffffffffffffffffffffffffffffffffffffffffffffffffffff821415610ddf57610dde610d72565b5b600182019050919050565b7f4e6f2076616c6964207472616e7366657220666f756e642e0000000000000000600082015250565b6000610e20601883610c5a565b9150610e2b82610dea565b602082019050919050565b60006020820190508181036000830152610e4f81610e13565b905091905056fea26469706673582212205d33226de78cdcd5669584e2209a78fd895091175c86723d4705aa6d2cc97e2f64736f6c634300080b0033",
  "immutableReferences": {},
  "source": "// SPDX-License-Identifier: MIT\npragma solidity ^0.8.11;\n\nimport \"./interfaces/IMembership.sol\";\n\ncontract TransferLog {\n    struct Transfer {\n        address from;\n        address to;\n        bytes32 hash1;\n        bytes32 hash2;\n        uint256 time;\n    }\n\n    IMembership registry;\n    mapping(address => Transfer[]) public transfers; // transfer list by recipient address\n\n    constructor(address _registryAddress) {\n        registry = IMembership(_registryAddress);\n    }\n\n    // Rough Gas: 168655\n    // Rough Price at 36 Gwei per Gas: 5,70\n    function announce(\n        address _to,\n        bytes32 _hash1,\n        bytes32 _hash2\n    ) public {\n        require(registry.isMember(msg.sender), \"Sender must be registered.\");\n        require(registry.isMember(_to), \"Receiver must be registered.\");\n        Transfer memory t = Transfer(\n            msg.sender,\n            _to,\n            _hash1,\n            _hash2,\n            block.timestamp\n        );\n        transfers[_to].push(t);\n    }\n\n    function validate(\n        address _from,\n        address _to,\n        bytes32 _hash1,\n        bytes32 _hash2\n    ) public view returns (Transfer memory) {\n        require(registry.isMember(_from), \"Sender must be registered.\");\n        require(registry.isMember(_to), \"Receiver must be registered.\");\n        Transfer[] memory transferList = transfers[_to];\n        for (uint256 i = 0; i < transferList.length; i++) {\n            Transfer memory t = transferList[i];\n            if (t.from == _from && t.hash1 == _hash1 && t.hash2 == _hash2) {\n                return t;\n            }\n        }\n        revert(\"No valid transfer found.\");\n    }\n}\n",
  "sourcePath": "/home/felix/projects/credit-mobility/contracts/contracts/TransferLog.sol",
  "compiler": {
    "name": "solc",
    "version": "0.8.11+commit.d7f03943.Emscripten.clang"
  },
  "schemaVersion": "3.4.4",
  "updatedAt": "2022-07-01T08:03:24.881Z",
  "networkType": "ethereum",
  "devdoc": {
    "kind": "dev",
    "methods": {},
    "version": 1
  },
  "userdoc": {
    "kind": "user",
    "methods": {},
    "version": 1
  }
}